:020000040000FA
:1000000001288316031788018901860183120313CF
:10001000003086000508013A031D11280130A800B0
:1000200048200508023A031D18280230A80048207D
:100030000508033A031D3C280330A800482001307E
:1000400086005F20033086005F20023086005F203C
:10005000063086005F20043086005F200C3086006A
:100060005F20083086005F20093086005F20A50BE6
:100070001F28A60B1F280800003086000A2803301E
:10008000A7000616522006125220A70B412808008E
:10009000FF30A5000230A6001F203F20A80B4828F3
:1000A0003C2808005C30A2002630A3000B30A400DE
:1000B000A20B5828A30B5828A40B63280800FA3079
:1000C000A0000D30A100A00B6328A10B632808003D
:00000001FF
