:020000040000FA
:1000000001288316031786018801890183160313CB
:10001000870183128312EF308600891566208701DD
:1000200089190F28EF3086005920FF3086005920AB
:10003000873086005920FD3086005920ED3086003B
:100040005920E63086005920CF3086005920DB3019
:1000500086005920863086005920BF3086005920FE
:100060006F30860059207F30860059200730860087
:1000700059207D30860059206D3086005920663029
:10008000860059204F30860059205B308600592069
:100090000630860059203F308600592050200F2816
:1000A0000330A3000714592007105920A30B52282E
:1000B0000800AC30A0001330A1000630A200A00B55
:1000C0005F28A10B5F28A20B5F280800FF30A30068
:0E00D0000D30A400A30B6A28A40B6A280800B8
:00000001FF
