:020000040000FA
:1000000001288316031786018801890183120313CF
:100010008820031D48288B288820031D4C288B2806
:100020008820031D50288B288820031D54288B28E6
:100030008820031D58288B288820031D5C288B28C6
:100040008820031D60288B288820031D64288B28A6
:100050008820031D68288B288820031D6C288B2886
:100060008820031D70288B288820031D74288B2866
:100070008820031D78288B288820031D7C288B2846
:100080008820031D80288B288820031D84288B2826
:100090003F3086008D200C28063086008D201028E9
:1000A0005B3086008D2014284F3086008D20182864
:1000B000663086008D201C286D3086008D2020281B
:1000C0007D3086008D202428073086008D2028284A
:1000D0007F3086008D202C286F3086008D203028C0
:1000E000773086008D2034287C3086008D2038289B
:1000F000393086008D203C285E3086008D204028D7
:10010000793086008D204428713086008D200828A3
:100110000508003A0800860108286430A000323043
:10012000A1000230A200A00B9328A10B9328A20BE0
:040130009328080008
:00000001FF
