:020000040000FA
:1000000001288316031786018801890183120313CF
:10001000D121031D48282829D121031D5228282930
:10002000D121031D5C282829D121031D66282829F8
:10003000D121031D70282829D121031D7A282829C0
:10004000D121031D84282829D121031D8E28282988
:10005000D121031D98282829D121031DA228282950
:10006000D121031DAC282829D121031DB628282918
:10007000D121031DC0282829D121031DCA282829E0
:10008000D121031DD4282829D121031DDE282829A8
:1000900006148610061186110612861206138613A0
:1000A000D4210C2806148614061186110612861215
:1000B00006138613D42110280614861406158611FB
:1000C0000612861206138613D421142806148614E9
:1000D000061586150612861206138613D4211828D3
:1000E0000614861406158615061686120613861340
:1000F000D4211C28061486140615861506168616A5
:1001000006138613D4212028061486140615861596
:100110000616861606178613D4212428061486147C
:10012000061586150616861606178617D421282862
:1001300006108614061586150616861606178617E7
:10014000D4212C280610861006158615061686164C
:1001500006178617D421302806108610061186153A
:100160000616861606178617D42134280610861020
:10017000061186110616861606178617D42138280A
:1001800006108610061186110612861606178617A7
:10019000D4213C28061086100611861106128612FC
:1001A00006178617D42140280610861006118611DE
:1001B0000612861206138617D421442806108610CC
:1001C000061186110612861206138613D4210828FA
:1001D000D121031D48282829D121031D482832296F
:1001E000D121031D48283C29D121031D4828462937
:1001F000D121031D48285029D121031D48285A29FF
:10020000D121031D48286429D121031D48286E29C6
:10021000D121031D48287829D121031D482882298E
:10022000D121031D48288C29D121031D4828962956
:10023000D121031D4828A029D121031D4828AA291E
:10024000D121031D4828B429D121031D4828BE29E6
:1002500006108610061186110612861206138617DE
:10026000D421EC280610861006118611061286127B
:1002700006178617D421F02806108610061186115D
:100280000612861606178617D421F4280610861043
:10029000061186110616861606178617D421F82829
:1002A000061086100611861506168616061786177E
:1002B000D421FC280610861006158615061686160B
:1002C00006178617D42100290610861406158615F0
:1002D0000616861606178617D421042906148614D6
:1002E000061586150616861606178617D4210829C0
:1002F0000614861406158615061686160617861326
:10030000D4210C29061486140615861506168616A1
:1003100006138613D4211029061486140615861593
:100320000616861206138613D42114290614861481
:10033000061586150612861206138613D42118296F
:1003400006148614061586110612861206138613E5
:10035000D4211C2906148614061186110612861251
:1003600006138613D421202906148610061186113F
:100370000612861206138613D4212429061086102D
:10038000061186110612861206138613D421E82858
:1003900006108610061186110612861206138613A1
:1003A000D1290508003A08006430A0003230A100CD
:1003B0000230A200A00BDA29A10BDA29A20BDA295C
:0203C000080033
:00000001FF
